:020000040800F2
:1000000000000320712301089DA20008ADA2000892
:10001000C9A20008CFA20008D5A200080000000075
:1000200000000000000000000000000081F5000852
:10003000DBA2000800000000A1F70008E9A2000808
:10004000C1230108C1230108C1230108C1230108FC
:10005000C1230108C1230108C1230108C1230108EC
:10006000C1230108C1230108C1230108C1230108DC
:10007000C1230108C1230108C1230108C1230108CC
:10008000C1230108C1230108C1230108C1230108BC
:10009000C1230108C1230108C1230108C1230108AC
:1000A000C123010845A30008C1230108C123010899
:1000B000C1230108C1230108C1230108C12301088C
:1000C000C1230108C1230108C1230108C12301087C
:1000D000C123010809A30008C1230108C1230108A5
:1000E000C1230108C1230108C1230108C12301085C
:1000F000C1230108C1230108C1230108C12301084C
:10010000C1230108F5A20008C1230108C123010889
:100110001DA30008C1230108C1230108C123010850
:10012000C1230108C1230108C123010859A3000804
:10013000C1230108C1230108C1230108C12301080B
:10014000C1230108C1230108C1230108C1230108FB
:10015000C12301086DA30008C123010831A30008D1
:10016000C1230108C1230108C1230108C1230108DB
:10017000C1230108C1230108C123010800000000B8
:10018000C1230108C1230108C1230108C1230108BB
:10019000C1230108C1230108C1230108C1230108AB
:0C01A0000000000000000000C123010866
:1001B00010B5054C237833B9044B13B10448AFF3A1
:1001C00000800123237010BD4002002000000000C9
:1001D000D07C010808B5034B1BB103490348AFF3BA
:1001E000008008BD0000000044020020D07C01080F
:1001F00001F0FF01102A2BDB10F0070F08D010F8D8
:10020000013B013A8B422DD010F0070F42B3F6D1DB
:10021000F0B441EA012141EA014122F007047FF0F4
:1002200000070023F0E80256083C85EA010586EA4B
:10023000010685FA47F5A3FA87F586FA47F6A5FA87
:1002400087F68EB9EED1F0BC01F0FF0102F0070293
:1002500032B110F8013B013A83EA010313B1F8D13E
:100260000020704701387047002D06BF354603381F
:10027000073815F0010F07D1013015F4807F02BF58
:10028000013015F4C03F0130F0BC0138704700BFA9
:10029000034613F8012B002AFBD1181A01387047C6
:1002A00081F0004102E000BF83F0004330B54FEA27
:1002B00041044FEA430594EA050F08BF90EA020F94
:1002C0001FBF54EA000C55EA020C7FEA645C7FEA27
:1002D000655C00F0E2804FEA5454D4EB5555B8BF4A
:1002E0006D420CDD2C4480EA020281EA030382EABB
:1002F000000083EA010180EA020281EA0303362D4D
:1003000088BF30BD11F0004F4FEA01314FF4801C1F
:100310004CEA113102D0404261EB410113F0004F31
:100320004FEA03334CEA133302D0524263EB4303E8
:1003300094EA050F00F0A780A4F10104D5F1200E86
:100340000DDB02FA0EFC22FA05F2801841F10001E1
:1003500003FA0EF2801843FA05F359410EE0A5F1B5
:1003600020050EF1200E012A03FA0EFC28BF4CF0E6
:10037000020C43FA05F3C01851EBE37101F000459C
:1003800007D54FF0000EDCF1000C7EEB00006EEBA9
:100390000101B1F5801F1BD3B1F5001F0CD3490833
:1003A0005FEA30004FEA3C0C04F101044FEA44528A
:1003B00012F5800F80F09A80BCF1004F08BF5FEA11
:1003C000500C50F1000041EB045141EA050130BDF1
:1003D0005FEA4C0C404141EB0101013C28BFB1F503
:1003E000801FE9D291F0000F04BF01460020B1FA4E
:1003F00081F308BF2033A3F10B03B3F120020CDA21
:100400000C3208DD02F1140CC2F10C0201FA0CF0FE
:1004100021FA02F10CE002F11402D8BFC2F1200C63
:1004200001FA02F120FA0CFCDCBF41EA0C01904019
:10043000E41AA2BF01EB0451294330BD6FEA040462
:100440001F3C1CDA0C340EDC04F11404C4F120024D
:1004500020FA04F001FA02F340EA030021FA04F35F
:1004600045EA030130BDC4F10C04C4F1200220FAB6
:1004700002F001FA04F340EA0300294630BD21FAF4
:1004800004F0294630BD94F0000F83F4801306BFBA
:1004900081F480110134013D4EE77FEA645C18BFAE
:1004A0007FEA655C29D094EA050F08BF90EA020F45
:1004B00005D054EA000C04BF1946104630BD91EA3D
:1004C000030F1EBF0021002030BD5FEA545C05D140
:1004D0004000494128BF41F0004130BD14F580047F
:1004E0003CBF01F5801130BD01F0004545F0FE41F3
:1004F00041F470014FF0000030BD7FEA645C1ABF28
:10050000194610467FEA655C1CBF0B46024650EA5E
:10051000013406BF52EA033591EA030F41F400218A
:1005200030BD00BF90F0000F04BF0021704730B510
:100530004FF4806404F132044FF000054FF00001E5
:1005400050E700BF90F0000F04BF0021704730B5A6
:100550004FF4806404F1320410F0004548BF40427B
:100560004FF000013EE700BF42004FEAE2014FEAD0
:1005700031014FEA02701FBF12F07F4393F07F4FAB
:1005800081F06051704732F07F4208BF704793F0AE
:100590007F4F04BF41F40021704730B54FF46074C1
:1005A00001F0004521F000411CE700BF50EA0102C4
:1005B00008BF704730B54FF000050AE050EA01026D
:1005C00008BF704730B511F0004502D5404261EBDD
:1005D00041014FF4806404F132045FEA915C3FF41E
:1005E000D8AE4FF003025FEADC0C18BF03325FEABB
:1005F000DC0C18BF033202EBDC02C2F1200300FA6C
:1006000003FC20FA02F001FA03FE40EA0E0021FA90
:1006100002F11444BDE600BF70B54FF0FF0C4CF47E
:10062000E06C1CEA11541DBF1CEA135594EA0C0F30
:1006300095EA0C0F00F0DEF82C4481EA030621EA6B
:100640004C5123EA4C5350EA013518BF52EA0335A6
:1006500041F4801143F4801338D0A0FB02CE4FF058
:100660000005E1FB02E506F00042E0FB03E54FF088
:100670000006E1FB03569CF0000F18BF4EF0010E80
:10068000A4F1FF04B6F5007F64F5407404D25FEA7C
:100690004E0E6D4146EB060642EAC62141EA55512F
:1006A0004FEAC52040EA5E504FEACE2EB4F1FD0C71
:1006B00088BFBCF5E06F1ED8BEF1004F08BF5FEAEF
:1006C000500E50F1000041EB045170BD06F00046A1
:1006D00046EA010140EA020081EA0301B4EB5C044E
:1006E000C2BFD4EB0C0541EA045170BD41F4801146
:1006F0004FF0000E013C00F3AB8014F1360FDEBF6B
:10070000002001F0004170BDC4F10004203C35DA46
:100710000C341BDC04F11404C4F1200500FA05F3C9
:1007200020FA04F001FA05F240EA020001F000426A
:1007300021F0004110EBD37021FA04F642EB0601E0
:100740005EEA430E08BF20EAD37070BDC4F10C040A
:10075000C4F1200500FA04F320FA05F001FA04F2CE
:1007600040EA020001F0004110EBD37041F10001BA
:100770005EEA430E08BF20EAD37070BDC4F12005C5
:1007800000FA05F24EEA020E20FA04F301FA05F22D
:1007900043EA020321FA04F001F0004121FA04F2D5
:1007A00020EA020000EBD3705EEA430E08BF20EAA5
:1007B000D37070BD94F0000F0FD101F000464000DF
:1007C00041EB010111F4801F08BF013CF7D041EA61
:1007D000060195F0000F18BF704703F00046520065
:1007E00043EB030313F4801F08BF013DF7D043EA36
:1007F0000603704794EA0C0F0CEA135518BF95EAEC
:100800000C0F0CD050EA410618BF52EA4306D1D172
:1008100081EA030101F000414FF0000070BD50EA91
:10082000410606BF1046194652EA430619D094EA1B
:100830000C0F02D150EA013613D195EA0C0F05D105
:1008400052EA03361CBF104619460AD181EA030159
:1008500001F0004141F0FE4141F470014FF0000011
:1008600070BD41F0FE4141F4780170BD70B54FF0AC
:10087000FF0C4CF4E06C1CEA11541DBF1CEA13552C
:1008800094EA0C0F95EA0C0F00F0A7F8A4EB05040E
:1008900081EA030E52EA03354FEA013100F0888005
:1008A0004FEA03334FF0805545EA131343EA1263CE
:1008B0004FEA022245EA111545EA10654FEA002683
:1008C0000EF000419D4208BF964244F1FD0404F53C
:1008D000407402D25B084FEA3202B61A65EB030598
:1008E0005B084FEA32024FF480104FF4002CB6EB55
:1008F000020E75EB030E22BFB61A754640EA0C00D5
:100900005B084FEA3202B6EB020E75EB030E22BF14
:10091000B61A754640EA5C005B084FEA3202B6EB55
:10092000020E75EB030E22BFB61A754640EA9C0014
:100930005B084FEA3202B6EB020E75EB030E22BFE4
:10094000B61A754640EADC0055EA060E18D04FEAA2
:10095000051545EA16754FEA06164FEAC30343EA42
:1009600052734FEAC2025FEA1C1CC0D111F4801F0F
:100970000BD141EA00014FF000004FF0004CB6E708
:1009800011F4801F04BF01430020B4F1FD0C88BFA7
:10099000BCF5E06F3FF6AFAEB5EB030C04BFB6EBB2
:1009A000020C5FEA500C50F1000041EB045170BDA5
:1009B0000EF0004E4EEA113114EB5C04C2BFD4EBD2
:1009C0000C0541EA045170BD41F480114FF0000E56
:1009D000013C90E645EA060E8DE60CEA135594EAD2
:1009E0000C0F08BF95EA0C0F3FF43BAF94EA0C0FD5
:1009F0000AD150EA01347FF434AF95EA0C0F7FF44A
:100A000025AF104619462CE795EA0C0F06D152EA9D
:100A100003353FF4FDAE1046194622E750EA410681
:100A200018BF52EA43067FF4C5AE50EA41047FF492
:100A30000DAF52EA43057FF4EBAE12E74FF0FF3CF7
:100A400006E000BF4FF0010C02E000BF4FF0010CC8
:100A50004DF804CD4FEA410C7FEA6C5C4FEA430C41
:100A600018BF7FEA6C5C1BD001B050EA410C0CBF90
:100A700052EA430C91EA030F02BF90EA020F0020F2
:100A8000704710F1000F91EA030F58BF994208BF59
:100A900090422CBFD8176FEAE37040F00100704716
:100AA0004FEA410C7FEA6C5C02D150EA013C07D16D
:100AB0004FEA430C7FEA6C5CD6D152EA033CD3D0B8
:100AC0005DF8040B704700BF8446104662468C46B2
:100AD0001946634600E000BF01B5FFF7B7FF0028E5
:100AE00048BF10F1000F01BD4DF808EDFFF7F4FF0E
:100AF0000CBF012000205DF808FB00BF4DF808ED99
:100B0000FFF7EAFF34BF012000205DF808FB00BFBB
:100B10004DF808EDFFF7E0FF94BF012000205DF8DD
:100B200008FB00BF4DF808EDFFF7CEFF94BF012092
:100B300000205DF808FB00BF4DF808EDFFF7C4FF8B
:100B400034BF012000205DF808FB00BF4FEA410CD4
:100B50007FEA6C5C02D150EA013C0AD14FEA430CB7
:100B60007FEA6C5C02D152EA033C02D14FF00000F4
:100B700070474FF0010070474FEA410212F5001232
:100B800015D211D56FF47873B3EB625212D94FEAD4
:100B9000C12343F0004343EA505311F0004F23FABE
:100BA00002F018BF404270474FF00000704750EA13
:100BB000013005D111F0004008BF6FF000407047D0
:100BC0004FF00000704700BF4A0011D212F500122A
:100BD00011D20DD56FF47873B3EB62520ED44FEA95
:100BE000C12343F0004343EA505323FA02F0704715
:100BF0004FF00000704750EA013002D14FF0FF3053
:100C000070474FF0000070474FEA4102B2F1E043F5
:100C100024BFB3F5001CDCF1FE5C0DD901F0004CE3
:100C20004FEAC0024CEA5070B2F1004F40EB830033
:100C300008BF20F00100704711F0804F21D113F15F
:100C40003872BCBF01F00040704741F480114FEA98
:100C50005252C2F11802C2F1200C10FA0CF320FA21
:100C600002F018BF40F001004FEAC1234FEAD3233E
:100C700003FA0CFC40EA0C0023FA02F34FEA4303A8
:100C8000CCE77FEA625307D150EA01331EBF4FF031
:100C9000FE4040F44000704701F0004040F0FE404C
:100CA00040F40000704700BF38B50022002304461E
:100CB0000D46FFF723FF28B920462946BDE83840F6
:100CC00000F00AB8204605F1004100F005F8404266
:100CD00061EB410138BD00BFD0B50C4B0022064688
:100CE0000F46FFF799FCFFF76FFF0446FFF71AFC6A
:100CF000074B0022FFF790FC02460B463046394670
:100D0000FFF7D2FAFFF760FF2146D0BD0000F03DAB
:100D10000000F04180B500AF084B1B684FF4FA713A
:100D200018460CF0CDF8064B00221A70034B1B68D6
:100D300018460CF015F900BF80BD00BF787C00207C
:100D40006002002080B582B000AF7860054802F0F4
:100D500045FC054802F0F0FD42F210700CF08FF8EF
:100D6000FAE700BFEC7C010840771B0080B582B039
:100D700000AF7860054802F031FC054802F0DCFD68
:100D800042F210700CF07BF8FAE700BF087D010812
:100D900040771B0080B582B000AF7860054802F054
:100DA0001DFC054802F0C8FD42F210700CF067F817
:100DB000FAE700BF247D010840771B0080B5ADF540
:100DC000707D02AF3B1D186007F5B4730122BA496C
:100DD00018460BF0E3F9034687F89F33B74B0093AF
:100DE000B74BB84AB849B9480FF02BFC0FF044FC98
:100DF000B7480EF06BFF0EF074FF0022B5490020DB
:100E00000BF0CCF9034687F89F330CF001F802464B
:100E100007F1BC031A6007F1600300221A60002387
:100E2000C7F8B433012387F8B33307F5AC7318461A
:100E300001F084F8034687F89E3397F89E33002B21
:100E400010D107F5AC731B681846FFF78DFB0246FF
:100E50000B4607F59C70A04912F00AFF9F4A07F560
:100E60009C73136007F5AA73184601F035F8034622
:100E700087F89E3397F89E33002B10D107F5AA739D
:100E80001B681846FFF770FB02460B4607F5967085
:100E9000914912F0EDFE914A07F59673136107F53B
:100EA000B373184601F082F9034687F89E3397F82A
:100EB0009E33002B2FD107F5B3731B8803F001037A
:100EC000002B01D0864B00E0864B844AD36007F5A7
:100ED000B3731B8803F00203002B01D0804B00E0AA
:100EE000804B7E4AD36107F5B3731B8803F004037C
:100EF000002B01D07A4B00E07A4B784A536007F51B
:100F0000B3731B8803F00803002B01D0744B00E07F
:100F1000744B724A536107F5A873184601F07EF8C6
:100F2000034687F89E3397F89E33002B10D107F5C0
:100F3000A8731B681846FFF717FB02460B4607F518
:100F40009070694912F094FE644A07F590739362B9
:100F500007F5A673184601F093F8034687F89E3309
:100F600097F89E33002B10D107F5A6731B6818461F
:100F7000FFF7FAFA02460B4607F58A705A4912F053
:100F800077FE564A07F58A73D36207F5A4731846AD
:100F900001F0A8F8034687F89E3397F89E33002B9C
:100FA00010D107F5A4731B681846FFF7DDFA024657
:100FB0000B4607F584704C4912F05AFE474A07F574
:100FC0008473136307F5A273184601F0BDF8034656
:100FD00087F89E3397F89E33002B10D107F5A27344
:100FE0001B681846FFF7C0FA02460B4607F1FC00E3
:100FF0003D4912F03DFE394A07F1FC03536307F502
:10100000B273184601F0F7F8034687F89E3397F855
:101010009E33002B40F0918007F5B2731B8803F4D8
:101020000053002B01D02E4B00E02E4B2B4A936334
:1010300007F5B2731B8803F48043002B01D0284BC3
:1010400000E0284B254AD36307F5B2731B881BB217
:10105000002B01DA224B00E0224B204A136407F5F3
:10106000B2731B8803F00803002B01D01C4B00E077
:101070001C4B1A4A936107F5B2731B8803F00403F3
:10108000002B01D0164B00E0164B144A136207F5F3
:10109000B2731B8803F00203002B01D0104B00E059
:1010A000104B0E4A536207F5B2731B8803F010030E
:1010B000002B1BD00A4B1AE030820020647D01080F
:1010C000407D0108487D0108547D01085C7D0108D0
:1010D0006C7D0108747D0108787D0108B0820020D4
:1010E000807D0108847D0108887D0108A54BA64A02
:1010F000936007F5B2731B8803F48073002B01D053
:10110000A24B00E09F4BA04A536507F5B2731B88C2
:1011100003F40063002B01D09C4B00E0994B9A4AEA
:10112000936507F5B2731B8803F08003002B01D091
:10113000964B00E0934B944AD36507F5B17318467C
:1011400001F0C8F8034687F89E3397F89E33002BCA
:101150000DD107F5B1731B881A4607F1F0038C49CE
:10116000184612F085FD884A07F1F003536407F52D
:10117000B073184601F0D3F8034687F89E3397F80A
:101180009E33002B0DD107F5B0731B881A4607F16B
:10119000E4037F49184612F06BFD7B4A07F1E40334
:1011A000936407F5AF73184601F0DEF8034687F83D
:1011B0009E3397F89E33002B0DD107F5AF731B8834
:1011C0001A4607F1D8037249184612F051FD6E4ACB
:1011D00007F1D803D3646F4B1B684FF4FA711846BC
:1011E0000BF06EFE6C4B1B78002B01D0674B00E0C0
:1011F000644B654A1365674B1B6818460BF0B0FEDD
:10120000664B1B681846FFF7AFF902460B4607F11D
:10121000C000634912F02CFD5B4A07F1C00313665E
:10122000604B1B684FF4FA7118460BF049FE5E4B99
:101230001B78002B01D0554B00E0524B524A5366AD
:10124000584B1B6818460BF08BFE584B1A6807F179
:10125000CC034F49184612F00BFD4B4A07F1CC0363
:1012600093660023C7F8AC330DE0474AD7F8AC3398
:1012700052F8233019464E4802F0B0F9D7F8AC3393
:101280000133C7F8AC33D7F8AC331A2BEDDDD7F800
:10129000B4330133C7F8B4330EF02AFD07F160020E
:1012A00007F16403114618460FF0CAFA97F8B333F2
:1012B000002B06D03F4802F091F9002387F8B333A2
:1012C00057E00023C7F8A8330BE007F10803D7F86D
:1012D000A823012143F82210D7F8A8330133C7F817
:1012E000A833D7F8A833152BEFDD0023C7F8A433B4
:1012F0001AE007F16403D7F8A42353F82230D7F893
:10130000B413184600F04EF907F16403D7F8A4238C
:1013100053F8222007F10803002143F82210D7F8E0
:10132000A4330133C7F8A43307F160031B68D7F86F
:10133000A4239A42DDDB0023C7F8A0330EE007F1B7
:101340000803D7F8A02353F8223019461A4802F0B0
:1013500045F9D7F8A0330133C7F8A033D7F8A03345
:10136000142BECDD07F108035B6D1946134802F0FE
:1013700035F907F1BC0341F2883118460BF0E8FE5D
:1013800053E500BF847D0108B0820020807D010804
:10139000907D0108787C0020600200200000002081
:1013A000787D01088C7C0020610200205C02002016
:1013B000947D01089C7D0108A07D0108A87D01089D
:1013C00080B592B000AF7860704802F007F90BF07A
:1013D0001FFD0346FB6007F13603184600F0E6FEEA
:1013E000FB8E03F02003002B03D0694A694B1A607F
:1013F00027E007F13C03184600F0A0FD07F1380391
:10140000184600F069FDD7ED0F7AB1EE047A27EEA9
:10141000877AD7ED0E7AF0EE086A67EEA67A77EE55
:10142000277AC7ED117A5B4B93ED007AD7ED116AFD
:101430009FED596AC6EE867A77EE677A554BC3ED13
:10144000007AFB8E03F04003002B66D007F13003D7
:10145000184600F07FFB07F12C03184600F0ACFBA8
:1014600007F12803184600F0D9FB07F124031846BA
:1014700000F006FC07F12003184600F033FC07F1EA
:101480001C03184600F060FC07F11803184600F032
:101490008DFC07F11403184600F0BAFC07F11003A5
:1014A000184600F0E7FC97ED0B7AD7ED0A7A37EE95
:1014B000277AD7ED0C7A67EE277AC7ED107A97ED89
:1014C000087AD7ED077A37EE277AD7ED097A67EEF3
:1014D000277A97ED107A77EE277AC7ED107A97ED95
:1014E000057AD7ED047A37EE277AD7ED067A67EEDC
:1014F000277A97ED107A77EE277AC7ED107AD7ED35
:10150000107ADFED256A87EEA67A224BD3ED007ABA
:1015100077EE277A1F4BC3ED007A204B1B684FF400
:10152000FA7118460BF0CCFC1A4BD3ED007AB0EEF2
:10153000087AF4EEC77AF1EE10FA03D5184B0122BF
:101540001A7015E0164B1A78124BD3ED007AB2EEF2
:10155000007AF4EEC77AF1EE10FACCBF0123002333
:10156000DBB21340DBB2002B02D00D4B00221A700D
:101570000A4B1B6818460BF0F3FC07F10C034FF401
:101580007A7118460BF0E4FD25E700BFB07D010835
:101590002E108F4100000020000061458C7C00204F
:1015A0006102002080B584B000AF78603960052307
:1015B000FB607B68152B00F23F8101A252F823F0FB
:1015C00039180008391800081916000869160008AB
:1015D00073160008791600087F16000885160008A3
:1015E0008B160008911600083918000839180008F1
:1015F000391800083918000897160008D71600088F
:101600000F170008471700087F1700089F170008EA
:10161000BF170008FF1700083B68FA6802FB03F3D6
:101620001846FEF78FFF4FF00002854BFFF71EF9BB
:1016300002460B46104619464FF00002814BFFF759
:1016400067FA0346002B00D1F7E000F045FF00F0F9
:1016500067FF00F053FF00F0ABFF00F0CDFF00F09C
:1016600095FFFFF757FBE8E000F01BFF00F022FFBB
:10167000E3E000F0DCFFE0E000F0EBFFDDE000F095
:10168000FAFFDAE000F0DCFFD7E000F0EBFFD4E097
:1016900000F0FAFFD1E03B68FA6802FB03F318465A
:1016A000FEF750FF4FF00002654BFFF7DFF80246F0
:1016B0000B46104619464FF00002624BFFF73CFA0A
:1016C0000346002B00D1B8E000F057FF00F00DFFFB
:1016D00000F01DFFB1E03B68FA6802FB03F3184617
:1016E000FEF730FF4FF00002554BFFF7BFF8024600
:1016F0000B46104619464FF00002524BFFF71CFAFA
:101700000346002B00D198E000F0EFFE95E03B6827
:10171000FA6802FB03F31846FEF714FF4FF00002CD
:10172000474BFFF7A3F802460B46104619464FF009
:101730000002444BFFF700FA0346002B00D17CE087
:1017400000F0C1FE79E03B68FA6802FB03F318463B
:10175000FEF7F8FE4FF00002394BFFF787F802461C
:101760000B46104619464FF00002364BFFF7E4F9DE
:101770000346002B00D160E000F0A5FE5DE0324B97
:101780001B684FF4FA7118460BF09AFB2F4B01229D
:101790001A702D4B1B6818460BF0E2FB4DE02A4BEC
:1017A0001B684FF4FA7118460BF08AFB274B002296
:1017B0001A70254B1B6818460BF0D2FB3DE03B68C6
:1017C000FA6802FB03F31846FEF7BCFE4FF0000276
:1017D0001B4BFFF74BF802460B46104619464FF0DD
:1017E0000002184BFFF7A8F90346002B00D124E0B4
:1017F00000F0DEFE00F0CAFEFFF78CFA1DE0144B8D
:101800001B681A68124B1B6842F400421A6064207D
:101810000BF035FB0E4B1B681A680D4B1B6822F44E
:1018200000421A600A4802F035FF094B002283F893
:101830003D2007F0EFFF00E000BF1037BD4680BD40
:1018400000004E4000003E408C7C002061020020E1
:10185000107E002090B587B000AF786039603B689B
:101860005B783B733B689B787B733B68DB78BB732F
:10187000BB7B184611F002F803463B6138693B68B0
:101880000433BA7B194611F009F8BB7B04333A687C
:1018900013441B783B757B681C4607F10C0393E8E7
:1018A000070084E8070078681C37BD4690BD00003B
:1018B000B0B588B000AF3B1D83E807006B461D46FE
:1018C000BB795C1D631E7B61234618464FF0000107
:1018D0004FF000024FF00003CB0043EA5073C20008
:1018E000234618464FF000014FF000024FF000036E
:1018F000CB0043EA5073C20023460733DB08DB000A
:10190000ADEB030D6B4600333B613B69FF221A7060
:101910003A793B695A707A793B699A70BA793B692E
:10192000DA700023BB610AE0BA68BB691A44BB697C
:10193000043311783A69D154BB690133BB61BB7977
:101940001A46BB699342EFDBBB790433397B3A69B2
:10195000D1540123FB773B790A2B0CD13969BB7930
:101960009BB205339AB24FF47A730D4806F0F1F941
:101970000346FB770EE03B79282B0BD13969BB7905
:101980009BB205339AB24FF47A73064806F0E1F938
:101990000346FB77FB7FAD4618462037BD46B0BDFA
:1019A000F87F00205481002080B489B000AF3B1D37
:1019B00083E807000023BB613B791A46BB691344E7
:1019C000BB617B791A46BB691344BB61BB791A467C
:1019D000BB691344BB610023FB610AE0BA68FB6981
:1019E00013441B781A46BB691344BB61FB6901337E
:1019F000FB61BB791A46FB699342EFDBBB69FB7560
:101A0000FB7DDB43DBB218462437BD465DF8047B23
:101A1000704780B487B000AF3B1D83E80700002308
:101A20003B613B791A463B6913443B617B791A461B
:101A30003B6913443B61BB791A463B6913443B61E4
:101A400000237B610AE0BA687B6913441B781A465D
:101A50003B6913443B617B6901337B61BB791A4667
:101A60007B699342EFDB3B7B1A463B6913443B6146
:101A70003B69DBB2FF2B01D1012300E000231846B4
:101A80001C37BD465DF8047B7047000080B584B00C
:101A900000AF78600123FB730123BB7307F10802D9
:101AA000BB7B1146184600F0F9FD0346FB73FB7B38
:101AB000002B01D0FB7B14E03B7A9BB21B029AB255
:101AC0007B7A9BB21344BB81BB8907EE903AF8EE58
:101AD000677A9FED067A67EE877A7B68C3ED007AB6
:101AE000FB7B18461037BD4680BD00BFEB51193B4C
:101AF00080B584B000AF78600123FB730223BB7311
:101B000007F10802BB7B1146184600F0C7FD0346EB
:101B1000FB73FB7B002B01D0FB7B14E03B7A9BB279
:101B20001B029AB27B7A9BB21344BB81BB8907EE3E
:101B3000903AF8EE677A9FED067A67EE877A7B68CF
:101B4000C3ED007AFB7B18461037BD4680BD00BF51
:101B50000000483B80B584B000AF78600123FB7380
:101B60000523BB7307F10802BB7B1146184600F042
:101B700095FD0346FB73FB7B002B01D0FB7B14E040
:101B80003B7A9BB21B029AB27B7A9BB21344BB8115
:101B9000BB8907EE903AF8EE677A9FED067A67EE1A
:101BA000877A7B68C3ED007AFB7B18461037BD4609
:101BB00080BD00BF0000203B80B584B000AF7860DE
:101BC0000123FB730623BB7307F10802BB7B11469D
:101BD000184600F063FD0346FB73FB7B002B01D02E
:101BE000FB7B14E03B7A9BB21B029AB27B7A9BB2DE
:101BF0001344BB81BB8907EE903AF8EE677A9FEDFC
:101C0000067A67EE877A7B68C3ED007AFB7B18461D
:101C10001037BD4680BD00BF0100203A80B584B0BA
:101C200000AF78600123FB730723BB7307F1080241
:101C3000BB7B1146184600F031FD0346FB73FB7B6E
:101C4000002B01D0FB7B14E03B7A9BB21B029AB2C3
:101C50007B7A9BB21344BB81BB8907EE903AF8EEC6
:101C6000677A9FED067A67EE877A7B68C3ED007A24
:101C7000FB7B18461037BD4680BD00BF0100203AEF
:101C800080B584B000AF78600123FB730823BB7379
:101C900007F10802BB7B1146184600F0FFFC034623
:101CA000FB73FB7B002B01D0FB7B14E03B7A9BB2E8
:101CB0001B029AB27B7A9BB21344BB81BB8907EEAD
:101CC000903AF8EE677A9FED067A67EE877A7B683E
:101CD000C3ED007AFB7B18461037BD4680BD00BFC0
:101CE0000000203B80B584B000AF78600123FB7317
:101CF0000923BB7307F10802BB7B1146184600F0AD
:101D0000CDFC0346FB73FB7B002B01D0FB7B14E077
:101D10003B7A9BB21B029AB27B7A9BB21344BB8183
:101D2000BB8907EE903AF8EE677A9FED067A67EE88
:101D3000877A7B68C3ED007AFB7B18461037BD4677
:101D400080BD00BF0100203A80B584B000AF78604C
:101D50000123FB730A23BB7307F10802BB7B114607
:101D6000184600F09BFC0346FB73FB7B002B01D065
:101D7000FB7B14E03B7A9BB21B029AB27B7A9BB24C
:101D80001344BB81BB8907EE903AF8EE677A9FED6A
:101D9000067A67EE877A7B68C3ED007AFB7B18468C
:101DA0001037BD4680BD00BF0100203A80B584B029
:101DB00000AF78600123FB730B23BB7307F10802AC
:101DC000BB7B1146184600F069FC0346FB73FB7BA6
:101DD000002B01D0FB7B14E03B7A9BB21B029AB232
:101DE0007B7A9BB21344BB81BB8907EE903AF8EE35
:101DF000677A9FED067A67EE877A7B68C3ED007A93
:101E0000FB7B18461037BD4680BD00BF0000203B5D
:101E100080B584B000AF78600123FB730C23BB73E3
:101E200007F10802BB7B1146184600F037FC034659
:101E3000FB73FB7B002B01D0FB7B14E03B7A9BB256
:101E40001B029AB27B7A9BB21344BB81BB8907EE1B
:101E5000903AF8EE677A9FED067A67EE877A7B68AC
:101E6000C3ED007AFB7B18461037BD4680BD00BF2E
:101E70000100203A80B584B000AF78600123FB7385
:101E80000D23BB7307F10802BB7B1146184600F017
:101E900005FC0346FB73FB7B002B01D0FB7B14E0AE
:101EA0003B7A9BB21B029AB27B7A9BB21344BB81F2
:101EB000BB8907EE903AF8EE677A9FED067A67EEF7
:101EC000877A7B68C3ED007AFB7B18461037BD46E6
:101ED00080BD00BF0100203A80B584B000AF7860BB
:101EE0000123FB730E23BB7307F10802BB7B114672
:101EF000184600F0D3FB0346FB73FB7B002B01D09D
:101F0000FB7B14E03B7A9BB21B029AB27B7A9BB2BA
:101F10001344BB81BB8907EE903AF8EE677A9FEDD8
:101F2000067A67EE877A7B68C3ED007AFB7B1846FA
:101F30001037BD4680BD00BF5555053B80B584B008
:101F400000AF78600123FB730F23BB7307F1080216
:101F5000BB7B1146184600F0A1FB0346FB73FB7BDD
:101F6000002B01D0FB7B14E03B7A9BB21B029AB2A0
:101F70007B7A9BB21344BB81BB8907EE903AF8EEA3
:101F8000677A9FED067A67EE877A7B68C3ED007A01
:101F9000FB7B18461037BD4680BD00BF5555053B3D
:101FA00080B584B000AF78600123FB731223BB734C
:101FB00007F10802BB7B1146184600F06FFB034691
:101FC000FB73FB7B002B01D0FB7B1CE03B7A9BB2BD
:101FD0001B029AB27B7A9BB21344BB81BB8907EE8A
:101FE000903AF8EE677A9FED0A7A67EE877A9FED6E
:101FF000097A37EEC77ADFED086AC7EE267A7B6882
:10200000C3ED007AFB7B18461037BD4680BD00BF8C
:102010000100203A7F6A7C3F1EA7683B80B584B0F0
:1020200000AF78600123FB731323BB7307F1080231
:10203000BB7B1146184600F031FB0346FB73FB7B6C
:10204000002B01D0FB7B14E03B7A9BB21B029AB2BF
:102050007B7A9BB21344BB81BB8907EE903AF8EEC2
:10206000677A9FED067A67EE877A7B68C3ED007A20
:10207000FB7B18461037BD4680BD00BF0000803B8B
:1020800080B584B000AF78600123FB731423BB7369
:1020900007F10802BB7B1146184600F0FFFA034621
:1020A000FB73FB7B002B01D0FB7B14E03B7A9BB2E4
:1020B0001B029AB27B7A9BB21344BB81BB8907EEA9
:1020C000903AF8EE677A9FED067A67EE877A7B683A
:1020D000C3ED007AFB7B18461037BD4680BD00BFBC
:1020E0000000803B80B584B000AF78600123FB73B3
:1020F0001523BB7307F10802BB7B1146184600F09D
:10210000CDFA0346FB73FB7B002B01D0FB7B14E075
:102110003B7A9BB21B029AB27B7A9BB21344BB817F
:10212000BB8907EE903AF8EE677A9FED067A67EE84
:10213000877A7B68C3ED007AFB7B18461037BD4673
:1021400080BD00BF0000803B80B584B000AF7860E8
:102150000123FB731623BB7307F10802BB7B1146F7
:10216000184600F09BFA0346FB73FB7B002B01D063
:10217000FB7B14E03B7A9BB21B029AB27B7A9BB248
:102180001344BB81BB8907EE903AF8EE677A9FED66
:10219000067A67EE877A7B68C3ED007AFB7B184688
:1021A0001037BD4680BD00BF0000803B80B584B0C5
:1021B00000AF78600123FB731723BB7307F10C0298
:1021C000BB7B1146184600F069FA0346FB73FB7BA4
:1021D000002B01D0FB7B0AE03B7B9BB21B029AB237
:1021E0007B7B9BB213449AB27B681A80FB7B1846B8
:1021F0001037BD4680BD80B584B000AF7860012344
:10220000FB731823BB7307F10C02BB7B1146184606
:1022100000F044FA0346FB73FB7B002B01D0FB7BF1
:102220000AE03B7B9BB21B029AB27B7B9BB21344BE
:102230009AB27B681A80FB7B18461037BD4680BD7A
:1022400080B584B000AF78600123FB731823BB73A3
:1022500007F10C02BB7B1146184600F01FFA03463B
:10226000FB73FB7B002B01D0FB7B0AE03B7B9BB22B
:102270001B029AB27B7B9BB213449AB27B681A8092
:10228000FB7B18461037BD4680BD80B584B000AFDB
:1022900078600123FB731A23BB7307F10C02BB7B2D
:1022A0001146184600F0FAF90346FB73FB7B002B3E
:1022B00001D0FB7B0AE03B7B9BB21B029AB27B7B8B
:1022C0009BB213449AB27B681A80FB7B1846103786
:1022D000BD4680BD80B584B000AF78600123FB733C
:1022E0001B23BB7307F10C02BB7B1146184600F0A1
:1022F000D5F90346FB73FB7B002B01D0FB7B0AE087
:102300003B7B9BB21B029AB27B7B9BB213449AB27B
:102310007B681A80FB7B18461037BD4680BD80B5B0
:1023200084B000AF78600123FB731C23BB7307F1FB
:102330000C02BB7B1146184600F0B0F90346FB7354
:10234000FB7B002B01D0FB7B0AE03B7B9BB21B029B
:102350009AB27B7B9BB213449AB27B681A80FB7B58
:1023600018461037BD4680BD80B584B000AF786098
:102370000123FB731D23BB7307F10C02BB7B1146CA
:10238000184600F08BF90346FB73FB7B002B01D052
:10239000FB7B0AE03B7B9BB21B029AB27B7B9BB22E
:1023A00013449AB27B681A80FB7B18461037BD46EF
:1023B00080BD80B584B000AF78600123FB7330230B
:1023C000BB7307F10C02BB7B1146184600F066F99F
:1023D0000346FB73FB7B002B01D0FB7B0AE03B7BBE
:1023E0009BB21B029AB27B7B9BB213449AB27B686E
:1023F0001A80FB7B18461037BD4680BD80B584B07F
:1024000000AF78600123FB732B23BB7307F10C0231
:10241000BB7B1146184600F041F90346FB73FB7B7A
:10242000002B01D0FB7B0AE03B7B9BB21B029AB2E4
:102430007B7B9BB213449AB27B681A80FB7B184665
:102440001037BD4680BD80B584B000AF78600123F1
:10245000FB732C23BB7307F10C02BB7B11461846A0
:1024600000F01CF90346FB73FB7B002B01D0FB7BC8
:102470000AE03B7B9BB21B029AB27B7B9BB213446C
:102480009AB27B681A80FB7B18461037BD4680BD28
:1024900080B500AF0121012000F04AF9034618463B
:1024A00080BD80B500AF0221012000F041F9034654
:1024B000184680BD80B500AF0021022000F038F939
:1024C0000346184680BD80B500AF0121042000F00E
:1024D0002FF90346184680BD80B500AF02210420C5
:1024E00000F026F90346184680BD80B500AF0021F4
:1024F000052000F01DF90346184680BD80B500AFE9
:102500000121052000F014F90346184680BD80B56E
:1025100000AF0021062000F00BF90346184680BDED
:1025200080B500AF0121062000F002F903461846ED
:1025300080BD80B500AF0121082000F0F9F8034606
:10254000184680BD80B500AF0021082000F0F0F8EB
:102550000346184680BD80B500AF0121092000F078
:10256000E7F80346184680BD80B500AF002109207A
:1025700000F0DEF80346184680BD80B500AF0121AB
:102580000A2000F0D5F80346184680BD80B500AF9C
:1025900000210A2000F0CCF80346184680BD80B523
:1025A00000AF01210B2000F0C3F80346184680BDA0
:1025B00080B500AF00210B2000F0BAF803461846A2
:1025C00080BD80B500AF01210C2000F0B1F80346BA
:1025D000184680BD80B500AF00210C2000F0A8F89F
:1025E0000346184680BD80B500AF01210E2000F0E3
:1025F0009FF80346184680BD80B500AF00210E202D
:1026000000F096F80346184680BD80B500AF012162
:102610000F2000F08DF80346184680BD80B500AF4E
:1026200000210F2000F084F80346184680BD80B5D5
:1026300000AF0121102000F07BF80346184680BD52
:1026400080B500AF0021102000F072F80346184654
:1026500080BD80B500AF0121112000F069F803466C
:10266000184680BD80B500AF0021112000F060F851
:102670000346184680BD80B500AF0121122000F04E
:1026800057F80346184680BD80B500AF00211220E0
:1026900000F04EF80346184680BD000080B586B0B5
:1026A00002AF03463960FB711E4B1B6840F6C41134
:1026B00018460AF005FC0123FB73FA1D64230093FE
:1026C00001233021184802F015F80346FB73FB7B09
:1026D000002B0BD0154B1B680133144A1360114BB0
:1026E0001B6818460AF03CFCFB7B17E06423009350
:1026F00002233A6830210C4802F00AF90346FB73C2
:10270000FB7B002B04D0094B1B680133074A136085
:10271000044B1B6818460AF023FCFB7B1846103755
:10272000BD4680BD747C0020107E00205C0200202D
:1027300080B586B002AF03460A46FB711346BB71F3
:10274000144B1B6840F2DC5118460AF0B9FB012318
:10275000FB73FB793B73BB797B7307F10C0264233A
:102760000093022330210C4801F0C4FF0346FB73A1
:10277000FB7B002B04D0094B1B680133074A136015
:10278000044B1B6818460AF0EBFBFB7B184610371E
:10279000BD4680BD747C0020107E00205C020020BD
:1027A00080B584B000AF0A233B71FF237B71022305
:1027B000BB71022010F062F80346BB60BB68FF22C9
:1027C0001A70BB680133FF221A703B1D93E80700A3
:1027D000FFF7EAF803463B733B1D93E80700FFF75A
:1027E00067F8034618461037BD4680BD90B5A9B0BE
:1027F00000AF3B1D83E807003B79282B48DC0A2B00
:10280000C0F2DF860A3B1E2B00F2DB8601A252F8E3
:1028100023F000BFC9350008C3350008C3350008E0
:10282000C3350008C3350008C3350008C3350008A8
:10283000C3350008C3350008C3350008C935000892
:10284000C3350008C3350008C3350008C335000888
:10285000C3350008C3350008C3350008C335000878
:10286000C33500089B280008C3350008C33500089D
:10287000C3350008C3350008C3350008C335000858
:10288000C3350008C3350008C3350008C935000842
:102890005A2B00F09B8600F094BE7B79013B102BF5
:1028A00000F2968601A252F823F000BFF12800083A
:1028B000D1350008CB290008D1350008032B0008CA
:1028C000D13500083B2C0008D1350008732D0008D5
:1028D000D13500085B2E0008D135000823300008F0
:1028E000D135000845310008D13500089F32000875
:1028F00007F168031846FFF7C9F8034687F89F30C9
:1029000097F89F30002B03D04FF0FF3300F062BEEA
:1029100007F164031846FFF7EBF8034687F89F308A
:1029200097F89F30002B03D04FF0FF3300F052BEDA
:10293000D7ED1A7AB0EE670A00F0A2FE0346A7F8B8
:102940007C30D7ED197AB0EE670A00F099FE0346A5
:10295000A7F87A301E2387F86C30002387F86D3093
:10296000042387F86E3004200FF088FF03463B678E
:10297000B7F87C301B0A9AB23B6FD2B21A703B6F29
:102980000133B7F87C20D2B21A70B7F87A301B0A3C
:102990009AB23B6F0233D2B21A703B6F0333B7F86F
:1029A0007A20D2B21A7007F16C0393E80700FEF7A1
:1029B000FBFF034687F8743007F16C0393E80700C8
:1029C000FEF776FF034600F005BE07F160031846E8
:1029D000FFF7C0F8034687F89F3097F89F30002B29
:1029E00003D04FF0FF3300F0F5BD07F15C0318464C
:1029F000FFF7E2F8034687F89F3097F89F30002BE7
:102A000003D04FF0FF3300F0E5BD07F1580318463F
:102A1000FFF704F9034687F89F3097F89F30002BA3
:102A200003D04FF0FF3300F0D5BDD7ED187AB0EEEC
:102A3000670A00F025FE0346A7F88230D7ED177A23
:102A4000B0EE670A00F01CFE0346A7F88030D7ED11
:102A5000167AB0EE670A00F013FE0346A7F87E3040
:102A60001E2387F86C30022387F86D30062387F821
:102A70006E3006200FF002FF03463B67B7F8823046
:102A80001B0A9AB23B6FD2B21A703B6F0133B7F890
:102A90008220D2B21A70B7F880301B0A9AB23B6F0C
:102AA0000233D2B21A703B6F0333B7F88020D2B230
:102AB0001A70B7F87E301B0A9AB23B6F0433D2B259
:102AC0001A703B6F0533B7F87E20D2B21A7007F147
:102AD0006C0393E80700FEF767FF034687F874303E
:102AE00007F16C0393E80700FEF7E2FE034687F860
:102AF0009F303B6F18460FF0C9FE97F89F3000F0EB
:102B000069BD07F154031846FFF7BAF8034687F882
:102B10009F3097F89F30002B03D04FF0FF3300F029
:102B200059BD07F150031846FFF7DCF8034687F854
:102B30009F3097F89F30002B03D04FF0FF3300F009
:102B400049BD07F14C031846FFF7FEF8034687F826
:102B50009F3097F89F30002B03D04FF0FF3300F0E9
:102B600039BDD7ED157AB0EE670A00F089FD03464E
:102B7000A7F88830D7ED147AB0EE670A00F080FD30
:102B80000346A7F88630D7ED137AB0EE670A00F057
:102B900077FD0346A7F884301E2387F86C300423A2
:102BA00087F86D30062387F86E3006200FF066FE3A
:102BB00003463B67B7F888301B0A9AB23B6FD2B224
:102BC0001A703B6F0133B7F88820D2B21A70B7F889
:102BD00086301B0A9AB23B6F0233D2B21A703B6F37
:102BE0000333B7F88620D2B21A70B7F884301B0AC4
:102BF0009AB23B6F0433D2B21A703B6F0533B7F809
:102C00008420D2B21A7007F16C0393E80700FEF734
:102C1000CBFE034687F8743007F16C0393E8070096
:102C2000FEF746FE034687F89F303B6F18460FF0CD
:102C30002DFE97F89F3000F0CDBC07F148031846F1
:102C4000FFF7B4F8034687F89F3097F89F30002BC2
:102C500003D04FF0FF3300F0BDBC07F1440318462A
:102C6000FFF7D6F8034687F89F3097F89F30002B80
:102C700003D04FF0FF3300F0ADBC07F1400318461E
:102C8000FFF7F8F8034687F89F3097F89F30002B3E
:102C900003D04FF0FF3300F09DBCD7ED127AB0EEB9
:102CA000670A00F0EDFC0346A7F88E30D7ED117AE5
:102CB000B0EE670A00F0E4FC0346A7F88C30D7EDCD
:102CC000107AB0EE670A00F0DBFC0346A7F88A3002
:102CD0001E2387F86C30062387F86D30062387F8AB
:102CE0006E3006200FF0CAFD03463B67B7F88E3002
:102CF0001B0A9AB23B6FD2B21A703B6F0133B7F81E
:102D00008E20D2B21A70B7F88C301B0A9AB23B6F81
:102D10000233D2B21A703B6F0333B7F88C20D2B2B1
:102D20001A70B7F88A301B0A9AB23B6F0433D2B2DA
:102D30001A703B6F0533B7F88A20D2B21A7007F1C8
:102D40006C0393E80700FEF72FFE034687F8743004
:102D500007F16C0393E80700FEF7AAFD034687F826
:102D60009F303B6F18460FF091FD97F89F3000F0B1
:102D700031BC07F13C031846FFF7AEF8034687F86D
:102D80009F3097F89F30002B03D04FF0FF3300F0B7
:102D900021BC07F138031846FFF7D0F8034687F83F
:102DA0009F3097F89F30002B03D04FF0FF3300F097
:102DB00011BCD7ED0F7AB0EE670A00F061FC034654
:102DC000A7F89230D7ED0E7AB0EE670A00F058FC03
:102DD0000346A7F890301E2387F86C30082387F845
:102DE0006D30042387F86E3004200FF047FD034652
:102DF0003B67B7F892301B0A9AB23B6FD2B21A7097
:102E00003B6F0133B7F89220D2B21A70B7F8903006
:102E10001B0A9AB23B6F0233D2B21A703B6F033374
:102E2000B7F89020D2B21A7007F16C0393E807004C
:102E3000FEF7BAFD034687F8743007F16C0393E898
:102E40000700FEF735FD034687F89F303B6F1846B5
:102E50000FF01CFD97F89F30BCE307F134031846D0
:102E6000FFF79EF8034687F89F3097F89F30002BB6
:102E700002D04FF0FF33ADE307F130031846FFF700
:102E8000CDF8034687F89F3097F89F30002B02D08B
:102E90004FF0FF339EE307F12C031846FFF7F0F8DD
:102EA000034687F89F3097F89F30002B02D04FF0F1
:102EB000FF338FE307F128031846FFF713F90346A2
:102EC00087F89F3097F89F30002B02D04FF0FF33E8
:102ED00080E307F124031846FFF736F9034687F825
:102EE0009F3097F89F30002B02D04FF0FF3371E3F3
:102EF000D7ED0D7AB0EE670A00F0C2FB0346A7F8E3
:102F00009C30D7ED0C7AB0EE670A00F0B9FB0346AF
:102F1000A7F89A30D7ED0B7AB0EE670A00F0B0FB55
:102F20000346A7F89830D7ED0A7AB0EE670A00F0AA
:102F3000A7FB0346A7F89630D7ED097AB0EE670AEB
:102F400000F09EFB0346A7F894301E2387F86C30F0
:102F50000A2387F86D300A2387F86E300A200FF0B5
:102F60008DFC03463B67B7F89C301B0A9AB23B6F57
:102F7000D2B21A703B6F0133B7F89C20D2B21A70EC
:102F8000B7F89A301B0A9AB23B6F0233D2B21A706A
:102F90003B6F0333B7F89A20D2B21A70B7F8983063
:102FA0001B0A9AB23B6F0433D2B21A703B6F0533DF
:102FB000B7F89820D2B21A70B7F896301B0A9AB2B6
:102FC0003B6F0633D2B21A703B6F0733B7F89620C7
:102FD000D2B21A70B7F894301B0A9AB23B6F08331A
:102FE000D2B21A703B6F0933B7F89420D2B21A707C
:102FF00007F16C0393E80700FEF7D6FC034687F859
:10300000743007F16C0393E80700FEF751FC0346A8
:1030100087F89F303B6F18460FF038FC97F89F30C9
:10302000D8E207F122031846FFF7C0F8034687F8F5
:103030009F3097F89F30002B02D04FF0FF33C9E24A
:1030400007F120031846FFF7D6F8034687F89F30AC
:1030500097F89F30002B02D04FF0FF33BAE207F110
:103060001E031846FFF7ECF8034687F89F3097F8E1
:103070009F30002B02D04FF0FF33ABE207F11C036F
:103080001846FFF7BBF9034687F89F3097F89F3043
:10309000002B02D04FF0FF339CE207F11A031846D1
:1030A000FFF7D1F9034687F89F3097F89F30002B40
:1030B00002D04FF0FF338DE21E2387F86C300C23D3
:1030C00087F86D30062387F86E3006200FF0D6FBA8
:1030D00003463B677A8C3B6FD2B21A703B8C1B0A5B
:1030E0009AB23B6F0133D2B21A703A8C3B6F023303
:1030F000D2B21A70FA8B3B6F0333D2B21A70BA8B0A
:103100003B6F0433D2B21A707A8B3B6F0533D2B265
:103110001A7007F16C0393E80700FEF745FC0346BD
:1031200087F8743007F16C0393E80700FEF7C0FBE3
:10313000034687F89F303B6F18460FF0A7FB97F8C0
:103140009F3047E207F118031846FFF79EF8034641
:1031500087F89F3097F89F30002B02D04FF0FF3355
:1031600038E207F116031846FFF7B4F8034687F86C
:103170009F3097F89F30002B02D04FF0FF3329E2A9
:1031800007F114031846FFF7CAF8034687F89F3083
:1031900097F89F30002B02D04FF0FF331AE207F16F
:1031A00012031846FFF7E0F8034687F89F3097F8B8
:1031B0009F30002B02D04FF0FF330BE207F11003DA
:1031C0001846FFF7F6F8034687F89F3097F89F30C8
:1031D000002B02D04FF0FF33FCE11E2387F86C3048
:1031E0000E2387F86D300A2387F86E300A200FF01F
:1031F00045FB03463B673B8B1B0A9AB23B6FD2B23F
:103200001A703A8B3B6F0133D2B21A70FB8A1B0AD9
:103210009AB23B6F0233D2B21A70FA8A3B6F033311
:10322000D2B21A70BB8A1B0A9AB23B6F0433D2B275
:103230001A70BA8A3B6F0533D2B21A707B8A1B0AA6
:103240009AB23B6F0633D2B21A707A8A3B6F073359
:10325000D2B21A703B8A1B0A9AB23B6F0833D2B2C1
:103260001A703A8A3B6F0933D2B21A7007F16C03B5
:1032700093E80700FEF798FB034687F8743007F1E0
:103280006C0393E80700FEF713FB034687F89F30B3
:103290003B6F18460FF0FAFA97F89F309AE11E2319
:1032A00087F86C30102387F86D30012387F86E3073
:1032B00001200FF0E3FA03463B673B1D93E807004C
:1032C000FEF7A7FB0346002B03D13B6F00221A70C9
:1032D0005EE1BB681B78013B0E2B00F2598101A215
:1032E00052F823F021330008913500089135000889
:1032F000553300089135000889330008BD330008B4
:10330000F133000825340008593400088D340008D2
:10331000C1340008F5340008293500085D3500087F
:10332000BB6801331B78002B05D13C6FFFF7B9F860
:10333000034623702CE1BB6801331B78012B05D1B8
:103340003C6FFFF7A5F80346237021E13B6F002295
:103350001A701DE1BB6801331B78002B05D13C6F4F
:10336000FFF7BAF80346237012E1BB6801331B78FC
:10337000012B05D13C6FFFF7A6F80346237007E148
:103380003B6F00221A7003E1BB6801331B78002BEE
:1033900005D13C6FFFF7D6F803462370F8E0BB6811
:1033A00001331B78012B05D13C6FFFF7C2F80346B0
:1033B0002370EDE03B6F00221A70E9E0BB68013337
:1033C0001B78002B05D13C6FFFF7CEF80346237026
:1033D000DEE0BB6801331B78012B05D13C6FFFF7A2
:1033E000BAF803462370D3E03B6F00221A70CFE097
:1033F000BB6801331B78002B05D13C6FFFF7C6F883
:1034000003462370C4E0BB6801331B78012B05D150
:103410003C6FFFF7B2F803462370B9E03B6F002220
:103420001A70B5E0BB6801331B78002B05D13C6FE7
:10343000FFF7BEF803462370AAE0BB6801331B7890
:10344000012B05D13C6FFFF7AAF8034623709FE0DC
:103450003B6F00221A709BE0BB6801331B78002B86
:1034600005D13C6FFFF7B6F80346237090E0BB68C8
:1034700001331B78012B05D13C6FFFF7A2F80346FF
:10348000237085E03B6F00221A7081E0BB68013336
:103490001B78002B05D13C6FFFF7AEF80346237075
:1034A00076E0BB6801331B78012B05D13C6FFFF739
:1034B0009AF8034623706BE03B6F00221A7067E0B6
:1034C000BB6801331B78002B05D13C6FFFF7A6F8D2
:1034D000034623705CE0BB6801331B78012B05D1E8
:1034E0003C6FFFF792F80346237051E03B6F0022D8
:1034F0001A704DE0BB6801331B78002B05D13C6F7F
:10350000FFF79EF80346237042E0BB6801331B7847
:10351000012B05D13C6FFFF78AF80346237037E093
:103520003B6F00221A7033E0BB6801331B78002B1D
:1035300005D13C6FFFF796F80346237028E0BB687F
:1035400001331B78012B05D13C6FFFF782F803464E
:1035500023701DE03B6F00221A7019E0BB68013335
:103560001B78002B05D13C6FFFF78EF803462370C4
:103570000DE0BB6801331B78012B05D13C6FFFF7D1
:103580007AF80346237002E03B6F00221A7000BFF6
:1035900007F16C0393E80700FEF706FA034687F885
:1035A000743007F16C0393E80700FEF781F90346D6
:1035B00087F89F303B6F18460FF068F997F89F30F7
:1035C00008E04FF0FF3305E000BF02E000BF00E07D
:1035D00000BF00231846A437BD4690BD0FB4B0B558
:1035E00086B000AF6B461D464FF400733B613C69EB
:1035F0002346013BFB6020464FF000014FF00002E4
:103600004FF00003CB0043EA5073C20020464FF056
:1036100000014FF000024FF00003CB0043EA50736B
:10362000C200E31DDB08DB00ADEB030D6B4600338E
:10363000BB6007F12C033B60B8683B68BA6A396924
:1036400011F07EFC78600123FB757B68002B0ADD9E
:10365000B9687B689AB24FF47A73084804F079FB32
:103660000346FB7501E00123FB75FB7DAD46184663
:103670001837BD46BDE8B04004B070475481002003
:1036800080B485B000AF87ED010A3B1D1B68FB606D
:10369000FB681B0C9BB223F4FF4323F07F039AB219
:1036A000FB6803F0FF4303F148435B0B9BB203F459
:1036B000F8439BB213439AB2FB685B0B9BB2C3F314
:1036C00009039BB213439BB218461437BD465DF8FD
:1036D000047B7047B0B59EB000AF00F0F1F805F084
:1036E0007BFE05F0FBFE06F095F806F00BF906F000
:1036F000DFF806F031F906F0BBF806F033FA0023E4
:103700007B6707F17403184609F0CDFB0346334A83
:10371000136000233B6707F17003184609F0C3FBF1
:1037200003462F4A13600023FB6607F16C0318461B
:1037300009F0B9FB03462B4A13600023BB6607F16F
:103740006803184609F0AFFB0346274A1360274B6E
:1037500007F154041D460FCD0FC42B68236007F1F9
:1037600054030021184609F063FB214B07F1400484
:103770001D460FCD0FC42B68236007F140030021C5
:10378000184609F055FB1B4B07F12C041D460FCDC5
:103790000FC42B68236007F12C030021184609F0A1
:1037A00047FB154B07F118041D460FCD0FC42B68BE
:1037B000236007F118030021184609F039FB0F4B6D
:1037C0003C1D1D460FCD0FC42B6823603B1D0021FF
:1037D000184609F02DFB09F014FBFEE7747C00206D
:1037E000907C0020787C00208C7C0020207E0108CA
:1037F000347E0108487E01085C7E0108707E010865
:1038000080B582B000AF78607B681B68044A934241
:1038100001D100F077F800BF0837BD4680BD00BF7A
:103820000000014080B500AF104B5B690F4A43F0C8
:10383000100353610D4B5B690C4A43F02003536145
:103840004FF4FA6000F078F8084B5B69074A23F000
:1038500010035361054B5B69044A23F02003536155
:103860004FF4FA6000F068F8DEE700BF000802409D
:1038700080B586B000AF78607B680F4A934216D15E
:1038800007F10C030D491846FDF7E4FF07F10C039F
:1038900093E80700FEF7AAFF0346B3F1FF3F01D10B
:1038A000FEF77EFF04220549034804F0EBFA00BF4F
:1038B0001837BD4680BD00BF54810020807C0020A9
:1038C00080B500AF0E4B1B680D4A43F400731360C4
:1038D0000B4B1B680A4A43F480631360084B1B6858
:1038E000074A43F480731360032000F00FF90F20A0
:1038F00006F07AFC06F056FA0023184680BD00BF99
:10390000003C024080B400AF044B1B680133034A03
:10391000136000BFBD465DF8047B7047A87C0020A3
:1039200080B400AF034B1B681846BD465DF8047BAE
:10393000704700BFA87C002080B584B000AF7860DD
:10394000FFF7EEFFB8607B68FB60FB68B3F1FF3FF9
:1039500002D0FB680133FB6000BFFFF7E1FF0246C6
:10396000BB68D31AFA689A42F7D800BF00BF103775
:10397000BD4680BD80B485B000AF78607B6803F041
:103980000703FB600C4BDB68BB60BA684FF6FF03B4
:103990001340BB60FB681A02BB68134343F0BF636C
:1039A00043F40033BB60044ABB68D36000BF1437E4
:1039B000BD465DF8047B704700ED00E080B400AFC9
:1039C000044BDB681B0A03F007031846BD465DF88D
:1039D000047B704700ED00E080B483B000AF034685
:1039E000FB71FB7903F01F02074997F907305B0968
:1039F000012000FA02F241F8232000BF0C37BD4637
:103A00005DF8047B704700BF00E100E080B483B044
:103A100000AF03463960FB7197F90730002B0BDAD2
:103A20003B68DAB20C49FB7903F00F03043B120147
:103A3000D2B20B441A7609E03B68DAB2074997F92B
:103A400007301201D2B20B4483F8002300BF0C37B9
:103A5000BD465DF8047B704700ED00E000E100E04A
:103A600080B489B000AFF860B9607A60FB6803F099
:103A70000703FB61FB69C3F10703042B28BF042381
:103A8000BB61FB690433062B02D9FB69033B00E0F1
:103A900000237B614FF0FF32BB6902FA03F3DA4384
:103AA000BB681A407B699A404FF0FF317B6901FA8D
:103AB00003F3D9437B680B40134318462437BD46B4
:103AC0005DF8047B7047000080B582B000AF78607D
:103AD0007B68013BB3F1807F01D301230FE00A4AE9
:103AE0007B68013B53600F214FF0FF30FFF78EFFE3
:103AF000054B00229A60044B07221A6000231846E7
:103B00000837BD4680BD00BF10E000E080B582B040
:103B100000AF78607868FFF72DFF00BF0837BD461B
:103B200080BD80B586B000AF0346B9607A60FB7394
:103B300000237B61FFF742FF78617A68B968786992
:103B4000FFF78EFF024697F90F3011461846FFF730
:103B50005DFF00BF1837BD4680BD80B582B000AFA5
:103B60000346FB7197F907301846FFF735FF00BF92
:103B70000837BD4680BD80B582B000AF78607868F8
:103B8000FFF7A2FF034618460837BD4680BD000078
:103B900080B483B000AF78607B68042B06D1094BFA
:103BA0001B68084A43F00403136005E0054B1B68DB
:103BB000044A23F00403136000BF0C37BD465DF8D0
:103BC000047B704710E000E080B483B000AF786001
:103BD0007B6893F83530DBB2022B04D07B688022FF
:103BE0005A6501230CE07B68052283F835207B6849
:103BF0001B681A687B681B6822F001021A600023A8
:103C000018460C37BD465DF8047B704780B586B01A
:103C100000AF78600023BB60934B1B68934AA2FB04
:103C200003239B0A7B617B689B6D3B613B691B683F
:103C3000FB607B68DB6D08229A40FB681340002B19
:103C40001AD07B681B681B6803F00403002B13D099
:103C50007B681B681A687B681B6822F004021A6084
:103C60007B68DB6D08229A403B699A607B685B6DDC
:103C700043F001027B685A657B68DB6D7C4A9A40A1
:103C8000FB681340002B12D07B681B685B6903F054
:103C90008003002B0BD07B68DB6D754A9A403B6933
:103CA0009A607B685B6D43F002027B685A657B68B3
:103CB000DB6D704A9A40FB681340002B12D07B6882
:103CC0001B681B6803F00203002B0BD07B68DB6DC5
:103CD000684A9A403B699A607B685B6D43F00402D6
:103CE0007B685A657B68DB6D10229A40FB68134045
:103CF000002B43D07B681B681B6803F00803002B74
:103D00003CD07B68DB6D10229A403B699A607B68EF
:103D10001B681B6803F48023002B18D07B681B688A
:103D20001B6803F40023002B08D17B681B6C002B5D
:103D300024D07B681B6C786898471FE07B689B6C7D
:103D4000002B1BD07B689B6C7868984716E07B68DB
:103D50001B681B6803F48073002B07D17B681B680A
:103D60001A687B681B6822F008021A607B681B6C6B
:103D7000002B03D07B681B6C786898477B68DB6DF1
:103D800020229A40FB681340002B00F094807B684F
:103D90001B681B6803F01003002B00F08C807B680D
:103DA000DB6D20229A403B699A607B6893F835303E
:103DB000DBB2052B37D17B681B681A687B681B68F0
:103DC00022F016021A607B681B685A697B681B68C0
:103DD00022F080025A617B681B6C002B03D17B6848
:103DE0009B6C002B07D07B681B681A687B681B687C
:103DF00022F008021A607B68DB6D3F229A403B6923
:103E00009A607B68002283F834207B68012283F863
:103E100035207B681B6D002B00F083807B681B6D59
:103E2000786898477DE07B681B681B6803F48023F3
:103E3000002B21D07B681B681B6803F40023002B38
:103E400008D17B685B6C002B35D07B685B6C786835
:103E5000984730E07B68DB6B002B2CD07B68DB6BFA
:103E60007868984727E000BF14000020B5814E1BFA
:103E700001008000040080007B681B681B6803F45D
:103E80008073002B0FD17B681B681A687B681B68E6
:103E900022F010021A607B68002283F834207B68CD
:103EA000012283F835207B68DB6B002B03D07B6815
:103EB000DB6B786898477B685B6D002B32D07B6842
:103EC0005B6D03F00103002B22D07B68052283F891
:103ED00035207B681B681A687B681B6822F001022A
:103EE0001A60BB680133BB607A699A4207D37B686A
:103EF0001B681B6803F00103002BF2D100E000BF38
:103F00007B68002283F834207B68012283F8352007
:103F10007B68DB6C002B05D07B68DB6C786898478E
:103F200000E000BF1837BD4680BD00BF80B489B037
:103F300000AF7860396000237B6100233B61002380
:103F4000BB610023FB6177E10122FB6902FA03F305
:103F50007B613B681B687A6913403B613A697B6906
:103F60009A4240F066813B685B68022B03D03B6855
:103F70005B68122B23D1FB69DA087B68083253F89F
:103F80002230BB61FB6903F007039B000F2202FA9A
:103F900003F3DB43BA691340BB613B681A69FB69F1
:103FA00003F007039B0002FA03F3BA691343BB61F2
:103FB000FB69DA087B680832B96943F822107B682C
:103FC0001B68BB61FB695B00032202FA03F3DB435E
:103FD000BA691340BB613B685B6803F00302FB698D
:103FE0005B0002FA03F3BA691343BB617B68BA69E9
:103FF0001A603B685B68012B0BD03B685B68022B47
:1040000007D03B685B68112B03D03B685B68122BC1
:1040100030D17B689B68BB61FB695B00032202FABD
:1040200003F3DB43BA691340BB613B68DA68FB69A1
:104030005B0002FA03F3BA691343BB617B68BA6998
:104040009A607B685B68BB610122FB6902FA03F33B
:10405000DB43BA691340BB613B685B681B0903F033
:104060000102FB6902FA03F3BA691343BB617B687F
:10407000BA695A607B68DB68BB61FB695B0003223D
:1040800002FA03F3DB43BA691340BB613B689A68E9
:10409000FB695B0002FA03F3BA691343BB617B68F7
:1040A000BA69DA603B685B6803F08053002B00F06C
:1040B000C0800023FB60664B5B6C654A43F4804321
:1040C0005364634B5B6C03F48043FB60FB68614AA1
:1040D000FB699B08023352F82330BB61FB6903F094
:1040E00003039B000F2202FA03F3DB43BA69134078
:1040F000BB617B68584A934237D07B68574A9342EA
:1041000031D07B68564A93422BD07B68554A934204
:1041100025D07B68544A93421FD07B68534A934210
:1041200019D07B68524A934213D07B68514A93421C
:104130000DD07B68504A934207D07B684F4A934228
:1041400001D1092312E00A2310E008230EE007231F
:104150000CE006230AE0052308E0042306E003231D
:1041600004E0022302E0012300E00023FA6902F0E8
:10417000030292009340BA691343BB613549FB695E
:104180009B080233BA6941F823203D4B1B68BB6191
:104190003B69DB43BA691340BB613B685B6803F46E
:1041A0008033002B03D0BA693B691343BB61344AA7
:1041B000BB691360324B5B68BB613B69DB43BA6927
:1041C0001340BB613B685B6803F40033002B03D0F2
:1041D000BA693B691343BB61294ABB695360284BE9
:1041E0009B68BB613B69DB43BA691340BB613B68B9
:1041F0005B6803F48013002B03D0BA693B69134357
:10420000BB611F4ABB6993601D4BDB68BB613B69A7
:10421000DB43BA691340BB613B685B6803F400137E
:10422000002B03D0BA693B691343BB61144ABB69D5
:10423000D360FB690133FB61FB690F2B7FF684AE12
:1042400000BF00BF2437BD465DF8047B704700BF48
:1042500000380240003801400000024000040240E3
:1042600000080240000C024000100240001402400E
:1042700000180240001C02400020024000240240BE
:10428000003C014080B487B000AF78603960002303
:104290003B610023FB600023BB6000237B61D9E00E
:1042A00001227B6902FA03F33B613A683B691340E0
:1042B000FB60FA683B699A4240F0C9807B681A68E3
:1042C0007B695B00032101FA03F3DB431A407B683F
:1042D0001A607B69DA087B68083253F822107B6920
:1042E00003F007039B000F2202FA03F3DB437A6912
:1042F000D20819407B68083243F822107B689A681C
:104300007B695B00032101FA03F3DB431A407B68FE
:104310009A607B685A6801217B6901FA03F3DB43E9
:104320001A407B685A607B68DA687B695B0003210E
:1043300001FA03F3DB431A407B68DA604B4A7B697E
:104340009B08023352F82330BB607B6903F0030300
:104350009B000F2202FA03F3BA681340BB607B682C
:10436000434A934237D07B68424A934231D07B68BC
:10437000414A93422BD07B68404A934225D07B68C8
:104380003F4A93421FD07B683E4A934219D07B68D4
:104390003D4A934213D07B683C4A93420DD07B68E0
:1043A0003B4A934207D07B683A4A934201D10923A2
:1043B00012E00A2310E008230EE007230CE0062396
:1043C0000AE0052308E0042306E0032304E00223B7
:1043D00002E0012300E000237A6902F00302920068
:1043E0009340BA689A4232D17B6903F003039B0081
:1043F0000F2202FA03F3BB601C4A7B699B0802335D
:1044000052F82310BB68DA4318487B699B080A40BE
:10441000023340F82320204B1A68FB68DB431E4917
:1044200013400B601C4B5A68FB68DB431A4913406E
:104430004B60194B9A68FB68DB43174913408B604C
:10444000154BDA68FB68DB4313491340CB607B698B
:1044500001337B617B690F2B7FF622AF00BF00BF6A
:104460001C37BD465DF8047B704700BF0038014033
:10447000000002400004024000080240000C02401C
:10448000001002400014024000180240001C0240CC
:104490000020024000240240003C014080B483B070
:1044A00000AF78600B467B8013467B707B78002BD7
:1044B00003D07A887B689A6103E07B881A047B6862
:1044C0009A6100BF0C37BD465DF8047B7047000061
:1044D00080B584B000AF78600023FB600023BB6030
:1044E0007B68002B01D10123C9E07B6893F83D3044
:1044F000DBB2002B06D17B68002283F83C20786871
:1045000005F082FC7B68242283F83D207B681B68D1
:104510001A687B681B6822F001021A6001F018FB20
:10452000B860BB68584AA2FB03239B0CFB607B6806
:104530001B68FA685A607B685B68544A934202D8E9
:10454000FB68013309E0FB684FF4967202FB03F34A
:104550004F4AA2FB03239B0901337A681268136256
:104560007B685B68494A934213D87B685B685B0051
:10457000BA68B2FBF3F240F6FC731340002B06D08E
:104580007B685B685B00BA68B2FBF3F345E0042329
:1045900043E07B689B68002B0FD17B685A68134609
:1045A0005B001344BA68B2FBF3F3C3F30B03002BB5
:1045B0000CBF01230023DBB210E07B685A6813466E
:1045C0009B0013449A001344BA68B2FBF3F3C3F39D
:1045D0000B03002B0CBF01230023DBB2002B01D007
:1045E00001231AE07B689B68002B0AD17B685A681C
:1045F00013465B001344BA68B2FBF3F343F4004381
:104600000BE07B685A6813469B0013449A001344DE
:10461000BA68B2FBF3F343F440437A681268D3619B
:104620007B68D9697B681A6A7B681B680A431A60D1
:104630007B6819697B68DA687B681B680A439A6043
:104640007B6859697B689A697B681B680A43DA60F2
:104650007B681B681A687B681B6842F001021A605D
:104660007B6800221A647B68202283F83D207B68E7
:1046700000221A637B68002283F83E20002318463C
:104680001037BD4680BD00BF83DE1B43A0860100FE
:10469000D34D621080B582B000AF78607B68002B8C
:1046A00001D1012321E07B68242283F83D207B682F
:1046B0001B681A687B681B6822F001021A60786820
:1046C00005F024FC7B6800221A647B68002283F8D2
:1046D0003D207B6800221A637B68002283F83E201D
:1046E0007B68002283F83C20002318460837BD462B
:1046F00080BD000080B588B002AFF8607A601A46CD
:104700000B467B8113463B8100237B61FFF708F951
:104710007861FB6893F83D30DBB2202B40F0EE80EF
:104720007B690093192301227749F86800F06CFC3B
:104730000346002B01D00223E1E0FB6893F83C30F4
:10474000012B01D10223DAE0FB68012283F83C202F
:10475000FB681B681B6803F00103012B07D0FB6893
:104760001B681A68FB681B6842F001021A60FB684C
:104770001B681A68FB681B6822F400621A60FB68F9
:10478000212283F83D20FB68102283F83E20FB683D
:1047900000221A64FB687A685A62FB683A895A8573
:1047A000FB685A4ADA62FB685B8D9AB2FB681A852D
:1047B00079897B693A6AF86800F0DCFA0346002BD5
:1047C0000FD0FB681B6C042B05D1FB68002283F81B
:1047D0003C20012393E0FB68002283F83C20032364
:1047E0008DE000233B61FB681B685B693B61FB68F4
:1047F0001B689B693B613B6966E07A69396AF868C6
:1048000000F0C1FC0346002B0FD0FB681B6C042B8F
:1048100009D1FB681B681A68FB681B6842F40072C8
:104820001A6001236BE0032369E0FB685B6A591C93
:10483000FA6851621A78FB681B681A61FB685B8D25
:104840009BB2013B9AB2FB685A85FB681B8D013B0A
:104850009AB2FB681A85FB681B685B6903F0040366
:10486000042B19D1FB681B8D002B15D0FB685B6AEC
:10487000591CFA6851621A78FB681B681A61FB6858
:104880005B8D9BB2013B9AB2FB685A85FB681B8D1E
:10489000013B9AB2FB681A857A69396AF86800F0B8
:1048A000AFFC0346002B0FD0FB681B6C042B09D117
:1048B000FB681B681A68FB681B6842F400721A6088
:1048C00001231CE003231AE0FB681B8D002B94D10D
:1048D000FB681B681A68FB681B6842F400721A6068
:1048E000FB68202283F83D20FB68002283F83E20ED
:1048F000FB68002283F83C20002300E002231846D6
:104900001837BD4680BD00BF020010000000FFFF49
:1049100080B58CB002AFF8607A601A460B467B8196
:1049200013463B8100237B62FEF7FAFF7862FB6847
:1049300093F83D30DBB2202B40F015827B6A009368
:10494000192301228549F86800F05EFB0346002B1D
:1049500001D0022308E2FB6893F83C30012B01D11F
:10496000022301E2FB68012283F83C20FB681B68FC
:104970001B6803F00103012B07D0FB681B681A6852
:10498000FB681B6842F001021A60FB681B681A682A
:10499000FB681B6822F400621A60FB68222283F81D
:1049A0003D20FB68102283F83E20FB6800221A6439
:1049B000FB687A685A62FB683A895A85FB68684ADC
:1049C000DA62FB685B8D9AB2FB681A8579897B6A2B
:1049D0003A6BF86800F050FA0346002B0FD0FB68E2
:1049E0001B6C042B05D1FB68002283F83C200123BB
:1049F000BAE1FB68002283F83C200323B4E1FB68A2
:104A00001B8D002B13D100233B62FB681B685B6985
:104A10003B62FB681B689B693B623B6AFB681B68E7
:104A20001A68FB681B6842F400721A6088E1FB6830
:104A30001B8D012B1BD1FB681B681A68FB681B6868
:104A400022F480621A600023FB61FB681B685B69CB
:104A5000FB61FB681B689B69FB61FB69FB681B686A
:104A60001A68FB681B6842F400721A6068E1FB6810
:104A70001B8D022B1BD1FB681B681A68FB681B6827
:104A800022F480621A60FB681B681A68FB681B6866
:104A900042F400621A600023BB61FB681B685B691B
:104AA000BB61FB681B689B69BB61BB6948E1FB6834
:104AB0001B681A68FB681B6842F480621A60002356
:104AC0007B61FB681B685B697B61FB681B689B699A
:104AD0007B617B6934E1FB681B8D032B00F2EB806B
:104AE000FB681B8D012B27D17A6A396BF86800F0BF
:104AF000C4FB0346002B07D0FB681B6C202B01D1A5
:104B0000032331E101232FE1FB681B681869FB686F
:104B10005B6A591CFA685162C2B21A70FB681B8D3D
:104B2000013B9AB2FB681A85FB685B8D9BB2013B27
:104B30009AB2FB685A8503E1FB681B8D022B4AD1B0
:104B40007B6A00933B6B00220649F86800F05CFA30
:104B50000346002B08D0032306E100BF020010002B
:104B60000000FFFF04000100FB681B681A68FB6877
:104B70001B6842F400721A60FB681B681869FB68C6
:104B80005B6A591CFA685162C2B21A70FB681B8DCD
:104B9000013B9AB2FB681A85FB685B8D9BB2013BB7
:104BA0009AB2FB685A85FB681B681869FB685B6AE8
:104BB000591CFA685162C2B21A70FB681B8D013B26
:104BC0009AB2FB681A85FB685B8D9BB2013B9AB277
:104BD000FB685A85B4E07B6A00933B6B0022644912
:104BE000F86800F011FA0346002B01D00323BBE064
:104BF000FB681B681A68FB681B6822F480621A60F5
:104C0000FB681B681869FB685B6A591CFA6851628B
:104C1000C2B21A70FB681B8D013B9AB2FB681A8501
:104C2000FB685B8D9BB2013B9AB2FB685A857B6A3D
:104C300000933B6B00224E49F86800F0E5F903460B
:104C4000002B01D003238FE0FB681B681A68FB6808
:104C50001B6842F400721A60FB681B681869FB68E5
:104C60005B6A591CFA685162C2B21A70FB681B8DEC
:104C7000013B9AB2FB681A85FB685B8D9BB2013BD6
:104C80009AB2FB685A85FB681B681869FB685B6A07
:104C9000591CFA685162C2B21A70FB681B8D013B45
:104CA0009AB2FB681A85FB685B8D9BB2013B9AB296
:104CB000FB685A8544E07A6A396BF86800F0DDFADF
:104CC0000346002B07D0FB681B6C202B01D103236C
:104CD0004AE0012348E0FB681B681869FB685B6ACF
:104CE000591CFA685162C2B21A70FB681B8D013BF5
:104CF0009AB2FB681A85FB685B8D9BB2013B9AB246
:104D0000FB685A85FB681B685B6903F00403042B8E
:104D100016D1FB681B681869FB685B6A591CFA6846
:104D20005162C2B21A70FB681B8D013B9AB2FB68DC
:104D30001A85FB685B8D9BB2013B9AB2FB685A8572
:104D4000FB681B8D002B7FF4C6AEFB68202283F826
:104D50003D20FB68002283F83E20FB68002283F898
:104D60003C20002300E0022318462837BD4680BDC2
:104D70000400010080B588B002AFF8607A603B6043
:104D80000B467B81FB68DB6A7B617B69042B06D069
:104D90007B69012B03D07B6913F5803F08D1FB6849
:104DA0001B681A68FB681B6842F480721A600BE08B
:104DB000FB681B6B122B07D1FB681B681A68FB682A
:104DC0001B6842F480721A603B6800937B68002283
:104DD0004FF00111F86800F017F90346002B01D0DD
:104DE000032341E0FB681B69B3F5804F08D17B8941
:104DF000DBB21A46FB681B6802F0FE021A6121E072
:104E00007B89DB11DBB203F00603DBB263F00F0337
:104E1000DAB2FB681B681A613B687A681449F86863
:104E200000F043F90346002B07D0FB681B6C042BF2
:104E300001D1012318E0032316E07B89DAB2FB6875
:104E40001B681A613B687A680A49F86800F02DF916
:104E50000346002B07D0FB681B6C042B01D10123F8
:104E600002E0032300E0002318461837BD4680BD4A
:104E7000080001000200010080B588B002AFF860B0
:104E80007A603B600B467B81FB68DB6A7B61FB6879
:104E90001B681A68FB681B6842F480621A607B69B1
:104EA000042B06D07B69012B03D07B6913F5803F6F
:104EB00008D1FB681B681A68FB681B6842F48072A3
:104EC0001A600BE0FB681B6B112B07D1FB681B689A
:104ED0001A68FB681B6842F480721A603B68009392
:104EE0007B6800224FF00111F86800F08DF803464E
:104EF000002B01D003237FE0FB681B69B3F5804FD3
:104F000008D17B89DBB243F00103DAB2FB681B688E
:104F10001A615FE07B89DB11DBB203F00603DBB2D1
:104F200063F00F03DAB2FB681B681A613B687A68AA
:104F30003349F86800F0B9F80346002B07D0FB6846
:104F40001B6C042B01D1012356E0032354E07B8921
:104F5000DAB2FB681B681A613B687A682949F8680D
:104F600000F0A3F80346002B07D0FB681B6C042B52
:104F700001D1012340E003233EE000233B61FB68B5
:104F80001B685B693B61FB681B689B693B613B6914
:104F9000FB681B681A68FB681B6842F480721A6021
:104FA0003B6800937B6800224FF00111F86800F025
:104FB0002BF80346002B01D003231DE07B89DB1176
:104FC000DBB203F00603DBB263F00E03DAB2FB6878
:104FD0001B681A613B687A680A49F86800F065F84E
:104FE0000346002B07D0FB681B6C042B01D1012367
:104FF00002E0032300E0002318461837BD4680BDB9
:10500000080001000200010080B584B000AFF86024
:10501000B9603B601346FB711FE03B68B3F1FF3F93
:105020001BD03B68002B07D0FEF77AFC0246BB6919
:10503000D31A3A689A4210D2FB6800221A63FB68BE
:10504000202283F83D20FB68002283F83E20FB6885
:10505000002283F83C20032323E0BB681B0CDBB257
:10506000012B0DD1FB681B685B69DA43BB681340F9
:105070009BB2002B0CBF01230023DBB21A460CE0CD
:10508000FB681B689B69DA43BB6813409BB2002B2B
:105090000CBF01230023DBB21A46FB799A42BCD035
:1050A000002318461037BD4680BD80B584B000AFE0
:1050B000F860B9607A603B6040E0FB681B685B6940
:1050C00003F48063B3F5806F1CD1FB681B681A681A
:1050D000FB681B6842F400721A60FB681B686FF47F
:1050E00080625A61FB6804221A64FB6800221A631A
:1050F000FB68202283F83D20FB68002283F83C20D7
:1051000001233CE07B68B3F1FF3F17D07B68002BA5
:1051100007D0FEF705FC02463B68D31A7A689A422C
:105120000CD2FB6800221A63FB68202283F83D2022
:10513000FB68002283F83C20032320E0BB681B0CA3
:10514000DBB2012B0CD1FB681B685B69DA43BB68DF
:1051500013409BB2002B14BF01230023DBB20BE0F2
:10516000FB681B689B69DA43BB6813409BB2002B4A
:1051700014BF01230023DBB2002B9ED1002318466D
:105180001037BD4680BD80B584B000AFF860B9600F
:105190007A6029E0F86800F0BAF80346002B01D0E5
:1051A000012329E0BB68B3F1FF3F1DD0BB68002B92
:1051B00007D0FEF7B5FB02467B68D31ABA689A425D
:1051C00012D2FB681B6C43F02002FB681A64FB6878
:1051D00000221A63FB68202283F83D20FB6800222E
:1051E00083F83C20032307E0FB681B685B6903F03E
:1051F0008003802BCED1002318461037BD4680BDDA
:1052000080B584B000AFF860B9607A6029E0F868D2
:1052100000F07DF80346002B01D0012329E0BB6894
:10522000B3F1FF3F1DD0BB68002B07D0FEF778FB22
:1052300002467B68D31ABA689A4212D2FB681B6C8A
:1052400043F02002FB681A64FB6800221A63FB68C3
:10525000202283F83D20FB68002283F83C200323B2
:1052600007E0FB681B685B6903F00403042BCED1E5
:10527000002318461037BD4680BD80B584B000AF0E
:10528000F860B9607A6036E0FB681B685B6903F020
:105290001003102B14D1FB681B686FF010025A61C9
:1052A000FB6800221A64FB6800221A63FB68202254
:1052B00083F83D20FB68002283F83C20012322E094
:1052C000BB68002B07D0FEF72BFB02467B68D31A86
:1052D000BA689A420FD2FB681B6C43F02002FB684D
:1052E0001A64FB68202283F83D20FB68002283F8C3
:1052F0003C20032307E0FB681B685B6903F0400365
:10530000402BC1D1002318461037BD4680BD80B464
:1053100083B000AF78607B681B685B6903F48063CF
:10532000B3F5806F14D17B681B686FF480625A619B
:105330007B6804221A647B6800221A637B6820223F
:1053400083F83D207B68002283F83C20012300E0A5
:10535000002318460C37BD465DF8047B70470000FB
:1053600080B58EB000AF786000237B637B681B68DC
:1053700003F00103002B75D0A44B9B6803F00C03D2
:10538000042B0CD0A14B9B6803F00C03082B12D10B
:105390009E4B5B6803F48003B3F5800F0BD19B4BEE
:1053A0001B6803F40033002B5BD07B685B68002B29
:1053B00057D1012324E27B685B68B3F5803F06D1B7
:1053C000924B1B68914A43F4803313601DE07B6865
:1053D0005B68B3F5A02F0CD18C4B1B688B4A43F450
:1053E00080231360894B1B68884A43F48033136021
:1053F0000BE0864B1B68854A23F480331360834B94
:105400001B68824A23F4802313607B685B68002B4F
:1054100013D0FEF785FA786308E0FEF781FA0246BA
:105420007B6BD31A642B01D90323E9E1774B1B680B
:1054300003F40033002BF0D014E0FEF771FA786328
:1054400008E0FEF76DFA02467B6BD31A642B01D994
:105450000323D5E16D4B1B6803F40033002BF0D11F
:1054600000E000BF7B681B6803F00203002B77D0CD
:10547000664B9B6803F00C03002B0BD0634B9B68BF
:1054800003F00C03082B26D1604B5B6803F4800308
:10549000002B20D15D4B1B6803F00203002B05D0CD
:1054A0007B68DB68012B01D00123A9E1574B1B6806
:1054B00023F0F8027B681969F8233B633B6B93FA8E
:1054C000A3F3FB62FB6AB3FA83F301FA03F34F49D8
:1054D00013430B6044E07B68DB68002B2AD04C4B05
:1054E00001221A60FEF71CFA786308E0FEF718FA4A
:1054F00002467B6BD31A022B01D9032380E1434B75
:105500001B6803F00203002BF0D0404B1B6823F014
:10551000F8027B681969F823BB62BB6A93FAA3F3AC
:105520007B627B6AB3FA83F301FA03F337491343CF
:105530000B6015E0364B00221A60FEF7F1F9786334
:1055400008E0FEF7EDF902467B6BD31A022B01D976
:10555000032355E12D4B1B6803F00203002BF0D110
:105560007B681B6803F00803002B30D07B685B6905
:10557000002B16D0274B01221A60FEF7D1F9786371
:1055800008E0FEF7CDF902467B6BD31A022B01D956
:10559000032335E11D4B5B6F03F00203002BF0D0BA
:1055A00015E01C4B00221A60FEF7BAF9786308E098
:1055B000FEF7B6F902467B6BD31A022B01D90323FF
:1055C0001EE1124B5B6F03F00203002BF0D17B68EE
:1055D0001B6803F00403002B00F086800023BB60EF
:1055E0000A4B1B6C094A43F080531364074B1B6C36
:1055F00003F08053BB60BB68074B1B68064A43F44B
:1056000080731360FEF78CF9786310E00038024075
:1056100000004742800E474200700040FEF780F9CC
:1056200002467B6BD31A022B01D90323E8E0764BA9
:105630001B6803F48073002BF0D07B689B68012B00
:1056400006D1724B1B6F714A43F0010313671CE0D4
:105650007B689B68052B0CD16C4B1B6F6B4A43F02E
:1056600004031367694B1B6F684A43F00103136718
:105670000BE0664B1B6F654A23F001031367634B16
:105680001B6F624A23F0040313677B689B68002B3F
:1056900015D0FEF745F978630AE0FEF741F90246B6
:1056A0007B6BD31A41F28832934201D90323A7E0DE
:1056B000564B1B6F03F00203002BEED014E0FEF7F5
:1056C0002FF978630AE0FEF72BF902467B6BD31AB9
:1056D00041F28832934201D9032391E04B4B1B6F77
:1056E00003F00203002BEED17B689B69002B00F0D6
:1056F0008680464B9B6803F00C03082B7DD07B68AB
:105700009B69022B62D1424B00221A60FEF708F916
:10571000786308E0FEF704F902467B6BD31A022B8C
:1057200001D903236CE0394B1B6803F00073002B95
:10573000F0D17B68DA697B681B6A1A437B68596A17
:1057400047F6C0733B613B6993FAA3F3FB60FB68C8
:10575000B3FA83F301FA03F31A437B689B6A5B088D
:10576000591E4FF44033BB61BB6993FAA3F37B61CD
:105770007B69B3FA83F301FA03F31A437B68D96AAE
:105780004FF070633B623B6A93FAA3F3FB61FB69E2
:10579000B3FA83F301FA03F31C4913434B601C4B28
:1057A00001221A60FEF7BCF8786308E0FEF7B8F84B
:1057B00002467B6BD31A022B01D9032320E0134B43
:1057C0001B6803F00073002BF0D018E0104B002290
:1057D0001A60FEF7A5F8786308E0FEF7A1F8024624
:1057E0007B6BD31A022B01D9032309E0074B1B68FB
:1057F00003F00073002BF0D101E0012300E000234F
:1058000018463837BD4680BD007000400038024061
:105810006000474280B586B000AF786039600023F1
:105820007B61814B1B6803F00F033A689A420CD9E5
:105830007D4B3A68D2B21A707B4B1B6803F00F03A2
:105840003A689A4201D00123EAE07B681B6803F0C2
:105850000203002B08D0754B9B6823F0F0027B6895
:105860009B68724913438B607B681B6803F00103DC
:10587000002B00F086807B685B68012B07D16B4BA7
:105880001B6803F40033002B19D10123C8E07B68A7
:105890005B68022B03D07B685B68032B07D1634BEB
:1058A0001B6803F00073002B09D10123B8E05F4BA4
:1058B0001B6803F00203002B01D10123B0E05B4B16
:1058C0009B6823F003027B685B68584913438B6035
:1058D000FEF726F878617B685B68012B12D10AE03D
:1058E000FEF71EF802467B69D31A41F288329342D2
:1058F00001D9032394E04D4B9B6803F00C03042B68
:10590000EED13EE07B685B68022B12D10AE0FEF725
:1059100007F802467B69D31A41F28832934201D9D3
:1059200003237DE0414B9B6803F00C03082BEED171
:1059300027E07B685B68032B1DD10AE0FDF7F0FFD1
:1059400002467B69D31A41F28832934201D903237C
:1059500066E0364B9B6803F00C030C2BEED110E095
:10596000FDF7DEFF02467B69D31A41F2883293428B
:1059700001D9032354E02D4B9B6803F00C03002B4B
:10598000EED1294B1B6803F00F033A689A420CD200
:10599000254B3A68D2B21A70234B1B6803F00F03F1
:1059A0003A689A4201D001233AE07B681B6803F011
:1059B0000403002B08D01D4B9B6823F4E0527B6846
:1059C000DB681A4913438B607B681B6803F008038C
:1059D000002B09D0154B9B6823F460427B681B6940
:1059E000DB00124913438B6000F026F801460F4B91
:1059F0009B6803F0F002F0233B613B6993FAA3F349
:105A0000FB60FB68B3FA83F322FA03F3084AD35C22
:105A100021FA03F3074A13600F2004F0E5FB00238B
:105A200018461837BD4680BD003C02400038024091
:105A3000AC7E01081400002080B48BB000AF0023BE
:105A4000FB6100237B620023BB6100233B62384B78
:105A50009B6803F00C03082B0CD0082B5DD8002B9F
:105A600002D0042B03D058E0324B3B6258E0314B5C
:105A70003B6255E02E4B5B6803F03F03FB612C4B10
:105A80005B6803F48003002B17D02A4AFB69B2FB42
:105A9000F3F2274B596847F6C0730B4047F6C071C5
:105AA0007961796991FAA1F139613969B1FA81F1C4
:105AB000CB4003FB02F37B6216E01E4AFB69B2FB9C
:105AC000F3F21B4B596847F6C0730B4047F6C071A1
:105AD000F960F96891FAA1F1B960B968B1FA81F198
